{
  "_format": "hh-sol-artifact-1",
  "contractName": "GovernanceToken",
  "sourceName": "contracts/governanceToken.sol",
  "abi": [
    {
      "inputs": [],
      "stateMutability": "nonpayable",
      "type": "constructor"
    },
    {
      "inputs": [],
      "name": "InvalidShortString",
      "type": "error"
    },
    {
      "inputs": [
        {
          "internalType": "string",
          "name": "str",
          "type": "string"
        }
      ],
      "name": "StringTooLong",
      "type": "error"
    },
    {
      "anonymous": false,
      "inputs": [
        {
          "indexed": true,
          "internalType": "address",
          "name": "owner",
          "type": "address"
        },
        {
          "indexed": true,
          "internalType": "address",
          "name": "spender",
          "type": "address"
        },
        {
          "indexed": false,
          "internalType": "uint256",
          "name": "value",
          "type": "uint256"
        }
      ],
      "name": "Approval",
      "type": "event"
    },
    {
      "anonymous": false,
      "inputs": [
        {
          "indexed": true,
          "internalType": "address",
          "name": "delegator",
          "type": "address"
        },
        {
          "indexed": true,
          "internalType": "address",
          "name": "fromDelegate",
          "type": "address"
        },
        {
          "indexed": true,
          "internalType": "address",
          "name": "toDelegate",
          "type": "address"
        }
      ],
      "name": "DelegateChanged",
      "type": "event"
    },
    {
      "anonymous": false,
      "inputs": [
        {
          "indexed": true,
          "internalType": "address",
          "name": "delegate",
          "type": "address"
        },
        {
          "indexed": false,
          "internalType": "uint256",
          "name": "previousBalance",
          "type": "uint256"
        },
        {
          "indexed": false,
          "internalType": "uint256",
          "name": "newBalance",
          "type": "uint256"
        }
      ],
      "name": "DelegateVotesChanged",
      "type": "event"
    },
    {
      "anonymous": false,
      "inputs": [],
      "name": "EIP712DomainChanged",
      "type": "event"
    },
    {
      "anonymous": false,
      "inputs": [
        {
          "indexed": true,
          "internalType": "address",
          "name": "from",
          "type": "address"
        },
        {
          "indexed": true,
          "internalType": "address",
          "name": "to",
          "type": "address"
        },
        {
          "indexed": false,
          "internalType": "uint256",
          "name": "value",
          "type": "uint256"
        }
      ],
      "name": "Transfer",
      "type": "event"
    },
    {
      "inputs": [],
      "name": "CLOCK_MODE",
      "outputs": [
        {
          "internalType": "string",
          "name": "",
          "type": "string"
        }
      ],
      "stateMutability": "view",
      "type": "function"
    },
    {
      "inputs": [],
      "name": "DOMAIN_SEPARATOR",
      "outputs": [
        {
          "internalType": "bytes32",
          "name": "",
          "type": "bytes32"
        }
      ],
      "stateMutability": "view",
      "type": "function"
    },
    {
      "inputs": [
        {
          "internalType": "address",
          "name": "owner",
          "type": "address"
        },
        {
          "internalType": "address",
          "name": "spender",
          "type": "address"
        }
      ],
      "name": "allowance",
      "outputs": [
        {
          "internalType": "uint256",
          "name": "",
          "type": "uint256"
        }
      ],
      "stateMutability": "view",
      "type": "function"
    },
    {
      "inputs": [
        {
          "internalType": "address",
          "name": "spender",
          "type": "address"
        },
        {
          "internalType": "uint256",
          "name": "amount",
          "type": "uint256"
        }
      ],
      "name": "approve",
      "outputs": [
        {
          "internalType": "bool",
          "name": "",
          "type": "bool"
        }
      ],
      "stateMutability": "nonpayable",
      "type": "function"
    },
    {
      "inputs": [
        {
          "internalType": "address",
          "name": "account",
          "type": "address"
        }
      ],
      "name": "balanceOf",
      "outputs": [
        {
          "internalType": "uint256",
          "name": "",
          "type": "uint256"
        }
      ],
      "stateMutability": "view",
      "type": "function"
    },
    {
      "inputs": [
        {
          "internalType": "address",
          "name": "account",
          "type": "address"
        },
        {
          "internalType": "uint32",
          "name": "pos",
          "type": "uint32"
        }
      ],
      "name": "checkpoints",
      "outputs": [
        {
          "components": [
            {
              "internalType": "uint32",
              "name": "fromBlock",
              "type": "uint32"
            },
            {
              "internalType": "uint224",
              "name": "votes",
              "type": "uint224"
            }
          ],
          "internalType": "struct ERC20Votes.Checkpoint",
          "name": "",
          "type": "tuple"
        }
      ],
      "stateMutability": "view",
      "type": "function"
    },
    {
      "inputs": [],
      "name": "clock",
      "outputs": [
        {
          "internalType": "uint48",
          "name": "",
          "type": "uint48"
        }
      ],
      "stateMutability": "view",
      "type": "function"
    },
    {
      "inputs": [],
      "name": "decimals",
      "outputs": [
        {
          "internalType": "uint8",
          "name": "",
          "type": "uint8"
        }
      ],
      "stateMutability": "view",
      "type": "function"
    },
    {
      "inputs": [
        {
          "internalType": "address",
          "name": "spender",
          "type": "address"
        },
        {
          "internalType": "uint256",
          "name": "subtractedValue",
          "type": "uint256"
        }
      ],
      "name": "decreaseAllowance",
      "outputs": [
        {
          "internalType": "bool",
          "name": "",
          "type": "bool"
        }
      ],
      "stateMutability": "nonpayable",
      "type": "function"
    },
    {
      "inputs": [
        {
          "internalType": "address",
          "name": "delegatee",
          "type": "address"
        }
      ],
      "name": "delegate",
      "outputs": [],
      "stateMutability": "nonpayable",
      "type": "function"
    },
    {
      "inputs": [
        {
          "internalType": "address",
          "name": "delegatee",
          "type": "address"
        },
        {
          "internalType": "uint256",
          "name": "nonce",
          "type": "uint256"
        },
        {
          "internalType": "uint256",
          "name": "expiry",
          "type": "uint256"
        },
        {
          "internalType": "uint8",
          "name": "v",
          "type": "uint8"
        },
        {
          "internalType": "bytes32",
          "name": "r",
          "type": "bytes32"
        },
        {
          "internalType": "bytes32",
          "name": "s",
          "type": "bytes32"
        }
      ],
      "name": "delegateBySig",
      "outputs": [],
      "stateMutability": "nonpayable",
      "type": "function"
    },
    {
      "inputs": [
        {
          "internalType": "address",
          "name": "account",
          "type": "address"
        }
      ],
      "name": "delegates",
      "outputs": [
        {
          "internalType": "address",
          "name": "",
          "type": "address"
        }
      ],
      "stateMutability": "view",
      "type": "function"
    },
    {
      "inputs": [],
      "name": "eip712Domain",
      "outputs": [
        {
          "internalType": "bytes1",
          "name": "fields",
          "type": "bytes1"
        },
        {
          "internalType": "string",
          "name": "name",
          "type": "string"
        },
        {
          "internalType": "string",
          "name": "version",
          "type": "string"
        },
        {
          "internalType": "uint256",
          "name": "chainId",
          "type": "uint256"
        },
        {
          "internalType": "address",
          "name": "verifyingContract",
          "type": "address"
        },
        {
          "internalType": "bytes32",
          "name": "salt",
          "type": "bytes32"
        },
        {
          "internalType": "uint256[]",
          "name": "extensions",
          "type": "uint256[]"
        }
      ],
      "stateMutability": "view",
      "type": "function"
    },
    {
      "inputs": [
        {
          "internalType": "uint256",
          "name": "timepoint",
          "type": "uint256"
        }
      ],
      "name": "getPastTotalSupply",
      "outputs": [
        {
          "internalType": "uint256",
          "name": "",
          "type": "uint256"
        }
      ],
      "stateMutability": "view",
      "type": "function"
    },
    {
      "inputs": [
        {
          "internalType": "address",
          "name": "account",
          "type": "address"
        },
        {
          "internalType": "uint256",
          "name": "timepoint",
          "type": "uint256"
        }
      ],
      "name": "getPastVotes",
      "outputs": [
        {
          "internalType": "uint256",
          "name": "",
          "type": "uint256"
        }
      ],
      "stateMutability": "view",
      "type": "function"
    },
    {
      "inputs": [
        {
          "internalType": "address",
          "name": "account",
          "type": "address"
        }
      ],
      "name": "getVotes",
      "outputs": [
        {
          "internalType": "uint256",
          "name": "",
          "type": "uint256"
        }
      ],
      "stateMutability": "view",
      "type": "function"
    },
    {
      "inputs": [
        {
          "internalType": "address",
          "name": "spender",
          "type": "address"
        },
        {
          "internalType": "uint256",
          "name": "addedValue",
          "type": "uint256"
        }
      ],
      "name": "increaseAllowance",
      "outputs": [
        {
          "internalType": "bool",
          "name": "",
          "type": "bool"
        }
      ],
      "stateMutability": "nonpayable",
      "type": "function"
    },
    {
      "inputs": [],
      "name": "max_supply",
      "outputs": [
        {
          "internalType": "uint256",
          "name": "",
          "type": "uint256"
        }
      ],
      "stateMutability": "view",
      "type": "function"
    },
    {
      "inputs": [],
      "name": "name",
      "outputs": [
        {
          "internalType": "string",
          "name": "",
          "type": "string"
        }
      ],
      "stateMutability": "view",
      "type": "function"
    },
    {
      "inputs": [
        {
          "internalType": "address",
          "name": "owner",
          "type": "address"
        }
      ],
      "name": "nonces",
      "outputs": [
        {
          "internalType": "uint256",
          "name": "",
          "type": "uint256"
        }
      ],
      "stateMutability": "view",
      "type": "function"
    },
    {
      "inputs": [
        {
          "internalType": "address",
          "name": "account",
          "type": "address"
        }
      ],
      "name": "numCheckpoints",
      "outputs": [
        {
          "internalType": "uint32",
          "name": "",
          "type": "uint32"
        }
      ],
      "stateMutability": "view",
      "type": "function"
    },
    {
      "inputs": [
        {
          "internalType": "address",
          "name": "owner",
          "type": "address"
        },
        {
          "internalType": "address",
          "name": "spender",
          "type": "address"
        },
        {
          "internalType": "uint256",
          "name": "value",
          "type": "uint256"
        },
        {
          "internalType": "uint256",
          "name": "deadline",
          "type": "uint256"
        },
        {
          "internalType": "uint8",
          "name": "v",
          "type": "uint8"
        },
        {
          "internalType": "bytes32",
          "name": "r",
          "type": "bytes32"
        },
        {
          "internalType": "bytes32",
          "name": "s",
          "type": "bytes32"
        }
      ],
      "name": "permit",
      "outputs": [],
      "stateMutability": "nonpayable",
      "type": "function"
    },
    {
      "inputs": [],
      "name": "symbol",
      "outputs": [
        {
          "internalType": "string",
          "name": "",
          "type": "string"
        }
      ],
      "stateMutability": "view",
      "type": "function"
    },
    {
      "inputs": [],
      "name": "totalSupply",
      "outputs": [
        {
          "internalType": "uint256",
          "name": "",
          "type": "uint256"
        }
      ],
      "stateMutability": "view",
      "type": "function"
    },
    {
      "inputs": [
        {
          "internalType": "address",
          "name": "to",
          "type": "address"
        },
        {
          "internalType": "uint256",
          "name": "amount",
          "type": "uint256"
        }
      ],
      "name": "transfer",
      "outputs": [
        {
          "internalType": "bool",
          "name": "",
          "type": "bool"
        }
      ],
      "stateMutability": "nonpayable",
      "type": "function"
    },
    {
      "inputs": [
        {
          "internalType": "address",
          "name": "from",
          "type": "address"
        },
        {
          "internalType": "address",
          "name": "to",
          "type": "address"
        },
        {
          "internalType": "uint256",
          "name": "amount",
          "type": "uint256"
        }
      ],
      "name": "transferFrom",
      "outputs": [
        {
          "internalType": "bool",
          "name": "",
          "type": "bool"
        }
      ],
      "stateMutability": "nonpayable",
      "type": "function"
    }
  ],
  "bytecode": "0x61016060405269d3c21bcecceda1000000600c553480156200002057600080fd5b506040518060400160405280600f81526020016e23b7bb32b93730b731b2aa37b5b2b760891b81525080604051806040016040528060018152602001603160f81b8152506040518060400160405280600f81526020016e23b7bb32b93730b731b2aa37b5b2b760891b815250604051806040016040528060048152602001635564616f60e01b8152508160039081620000ba91906200073c565b506004620000c982826200073c565b50620000db915083905060056200019a565b61012052620000ec8160066200019a565b61014052815160208084019190912060e052815190820120610100524660a0526200017a60e05161010051604080517f8b73c3c69bb8fe3d512ecc4cf759cc79239f7b179b0ffacaa9a75d522b39400f60208201529081019290925260608201524660808201523060a082015260009060c00160405160208183030381529060405280519060200120905090565b60805250503060c05250600c5462000194903390620001d3565b6200089f565b6000602083511015620001ba57620001b2836200027f565b9050620001cd565b81620001c784826200073c565b5060ff90505b92915050565b620001df8282620002c2565b6001600160e01b03620001f3620003938216565b1115620002605760405162461bcd60e51b815260206004820152603060248201527f4552433230566f7465733a20746f74616c20737570706c79207269736b73206f60448201526f766572666c6f77696e6720766f74657360801b60648201526084015b60405180910390fd5b62000279600b62000b5c6200039960201b1783620003ae565b50505050565b600080829050601f81511115620002ad578260405163305a27a960e01b815260040162000257919062000808565b8051620002ba8262000858565b179392505050565b6001600160a01b0382166200031a5760405162461bcd60e51b815260206004820152601f60248201527f45524332303a206d696e7420746f20746865207a65726f206164647265737300604482015260640162000257565b80600260008282546200032e91906200087d565b90915550506001600160a01b038216600081815260208181526040808320805486019055518481527fddf252ad1be2c89b69c2b068fc378daa952ba7f163c4a11628f55a4df523b3ef910160405180910390a36200038f600083836200053b565b5050565b60025490565b6000620003a782846200087d565b9392505050565b82546000908190818115620003fd5760008781526020902082016000190160408051808201909152905463ffffffff8116825264010000000090046001600160e01b0316602082015262000412565b60408051808201909152600080825260208201525b905080602001516001600160e01b031693506200043084868860201c565b92506000821180156200045d57506200044862000547565b65ffffffffffff16816000015163ffffffff16145b15620004a6576200046e8362000559565b60008881526020902083016000190180546001600160e01b03929092166401000000000263ffffffff9092169190911790556200052c565b866040518060400160405280620004d4620004c66200054760201b60201c565b65ffffffffffff16620005c8565b63ffffffff168152602001620004ea8662000559565b6001600160e01b0390811690915282546001810184556000938452602093849020835194909301519091166401000000000263ffffffff909316929092179101555b5050935093915050565b505050565b620005368282620001d3565b600062000554436200062f565b905090565b60006001600160e01b03821115620005c45760405162461bcd60e51b815260206004820152602760248201527f53616665436173743a2076616c756520646f65736e27742066697420696e20326044820152663234206269747360c81b606482015260840162000257565b5090565b600063ffffffff821115620005c45760405162461bcd60e51b815260206004820152602660248201527f53616665436173743a2076616c756520646f65736e27742066697420696e203360448201526532206269747360d01b606482015260840162000257565b600065ffffffffffff821115620005c45760405162461bcd60e51b815260206004820152602660248201527f53616665436173743a2076616c756520646f65736e27742066697420696e203460448201526538206269747360d01b606482015260840162000257565b634e487b7160e01b600052604160045260246000fd5b600181811c90821680620006c357607f821691505b602082108103620006e457634e487b7160e01b600052602260045260246000fd5b50919050565b601f8211156200053657600081815260208120601f850160051c81016020861015620007135750805b601f850160051c820191505b8181101562000734578281556001016200071f565b505050505050565b81516001600160401b0381111562000758576200075862000698565b6200077081620007698454620006ae565b84620006ea565b602080601f831160018114620007a857600084156200078f5750858301515b600019600386901b1c1916600185901b17855562000734565b600085815260208120601f198616915b82811015620007d957888601518255948401946001909101908401620007b8565b5085821015620007f85787850151600019600388901b60f8161c191681555b5050505050600190811b01905550565b600060208083528351808285015260005b81811015620008375785810183015185820160400152820162000819565b506000604082860101526040601f19601f8301168501019250505092915050565b80516020808301519190811015620006e45760001960209190910360031b1b16919050565b80820180821115620001cd57634e487b7160e01b600052601160045260246000fd5b60805160a05160c05160e051610100516101205161014051611ff7620008fa60003960006106690152600061063e01526000610f8a01526000610f6201526000610ebd01526000610ee701526000610f110152611ff76000f3fe608060405234801561001057600080fd5b506004361061016e5760003560e01c80637ecebe00116100ce5780639ab24eb0116100875780639ab24eb014610339578063a457c2d71461034c578063a9059cbb1461035f578063c3cda52014610372578063d505accf14610385578063dd62ed3e14610398578063f1127ed8146103ab57600080fd5b80637ecebe00146102c857806384b0196e146102db5780638a333b50146102f65780638e539e8c146102ff57806391ddadf41461031257806395d89b411461033157600080fd5b8063395093511161012b57806339509351146101f05780633a46b1a8146102035780634bf5d7e914610216578063587cde1e1461021e5780635c19a95c146102625780636fcfff451461027757806370a082311461029f57600080fd5b806306fdde0314610173578063095ea7b31461019157806318160ddd146101b457806323b872dd146101c6578063313ce567146101d95780633644e515146101e8575b600080fd5b61017b6103e8565b6040516101889190611c15565b60405180910390f35b6101a461019f366004611c44565b61047a565b6040519015158152602001610188565b6002545b604051908152602001610188565b6101a46101d4366004611c6e565b610494565b60405160128152602001610188565b6101b86104b8565b6101a46101fe366004611c44565b6104c7565b6101b8610211366004611c44565b6104e9565b61017b61054b565b61024a61022c366004611caa565b6001600160a01b039081166000908152600960205260409020541690565b6040516001600160a01b039091168152602001610188565b610275610270366004611caa565b6105e3565b005b61028a610285366004611caa565b6105f0565b60405163ffffffff9091168152602001610188565b6101b86102ad366004611caa565b6001600160a01b031660009081526020819052604090205490565b6101b86102d6366004611caa565b610612565b6102e3610630565b6040516101889796959493929190611cc5565b6101b8600c5481565b6101b861030d366004611d5b565b6106b9565b61031a6106f4565b60405165ffffffffffff9091168152602001610188565b61017b6106ff565b6101b8610347366004611caa565b61070e565b6101a461035a366004611c44565b61078f565b6101a461036d366004611c44565b61080a565b610275610380366004611d85565b610818565b610275610393366004611ddd565b61094a565b6101b86103a6366004611e47565b610aae565b6103be6103b9366004611e7a565b610ad9565b60408051825163ffffffff1681526020928301516001600160e01b03169281019290925201610188565b6060600380546103f790611eba565b80601f016020809104026020016040519081016040528092919081815260200182805461042390611eba565b80156104705780601f1061044557610100808354040283529160200191610470565b820191906000526020600020905b81548152906001019060200180831161045357829003601f168201915b5050505050905090565b600033610488818585610b68565b60019150505b92915050565b6000336104a2858285610c8c565b6104ad858585610d06565b506001949350505050565b60006104c2610eb0565b905090565b6000336104888185856104da8383610aae565b6104e49190611f04565b610b68565b60006104f36106f4565b65ffffffffffff1682106105225760405162461bcd60e51b815260040161051990611f17565b60405180910390fd5b6001600160a01b0383166000908152600a602052604090206105449083610fdb565b9392505050565b6060436105566106f4565b65ffffffffffff16146105ab5760405162461bcd60e51b815260206004820152601d60248201527f4552433230566f7465733a2062726f6b656e20636c6f636b206d6f64650000006044820152606401610519565b5060408051808201909152601d81527f6d6f64653d626c6f636b6e756d6265722666726f6d3d64656661756c74000000602082015290565b6105ed33826110c3565b50565b6001600160a01b0381166000908152600a602052604081205461048e9061113c565b6001600160a01b03811660009081526007602052604081205461048e565b6000606080828080836106647f000000000000000000000000000000000000000000000000000000000000000060056111a5565b61068f7f000000000000000000000000000000000000000000000000000000000000000060066111a5565b60408051600080825260208201909252600f60f81b9b939a50919850469750309650945092509050565b60006106c36106f4565b65ffffffffffff1682106106e95760405162461bcd60e51b815260040161051990611f17565b61048e600b83610fdb565b60006104c243611250565b6060600480546103f790611eba565b6001600160a01b0381166000908152600a6020526040812054801561077c576001600160a01b0383166000908152600a602052604090208054600019830190811061075b5761075b611f4a565b600091825260209091200154600160201b90046001600160e01b031661077f565b60005b6001600160e01b03169392505050565b6000338161079d8286610aae565b9050838110156107fd5760405162461bcd60e51b815260206004820152602560248201527f45524332303a2064656372656173656420616c6c6f77616e63652062656c6f77604482015264207a65726f60d81b6064820152608401610519565b6104ad8286868403610b68565b600033610488818585610d06565b834211156108685760405162461bcd60e51b815260206004820152601d60248201527f4552433230566f7465733a207369676e617475726520657870697265640000006044820152606401610519565b604080517fe48329057bfd03d55e49b547132e39cffd9c1820ad7b9d4c5307691425d15adf60208201526001600160a01b0388169181019190915260608101869052608081018590526000906108e2906108da9060a001604051602081830303815290604052805190602001206112b7565b8585856112e4565b90506108ed8161130c565b86146109375760405162461bcd60e51b81526020600482015260196024820152784552433230566f7465733a20696e76616c6964206e6f6e636560381b6044820152606401610519565b61094181886110c3565b50505050505050565b8342111561099a5760405162461bcd60e51b815260206004820152601d60248201527f45524332305065726d69743a206578706972656420646561646c696e650000006044820152606401610519565b60007f6e71edae12b1b97f4d1f60370fef10105fa2faae0126114a169c64845d6126c98888886109c98c61130c565b6040805160208101969096526001600160a01b0394851690860152929091166060840152608083015260a082015260c0810186905260e0016040516020818303038152906040528051906020012090506000610a24826112b7565b90506000610a34828787876112e4565b9050896001600160a01b0316816001600160a01b031614610a975760405162461bcd60e51b815260206004820152601e60248201527f45524332305065726d69743a20696e76616c6964207369676e617475726500006044820152606401610519565b610aa28a8a8a610b68565b50505050505050505050565b6001600160a01b03918216600090815260016020908152604080832093909416825291909152205490565b60408051808201909152600080825260208201526001600160a01b0383166000908152600a60205260409020805463ffffffff8416908110610b1d57610b1d611f4a565b60009182526020918290206040805180820190915291015463ffffffff81168252600160201b90046001600160e01b0316918101919091529392505050565b60006105448284611f04565b6001600160a01b038316610bca5760405162461bcd60e51b8152602060048201526024808201527f45524332303a20617070726f76652066726f6d20746865207a65726f206164646044820152637265737360e01b6064820152608401610519565b6001600160a01b038216610c2b5760405162461bcd60e51b815260206004820152602260248201527f45524332303a20617070726f766520746f20746865207a65726f206164647265604482015261737360f01b6064820152608401610519565b6001600160a01b0383811660008181526001602090815260408083209487168084529482529182902085905590518481527f8c5be1e5ebec7d5bd14f71427d1e84f3dd0314c0f7b2291e5b200ac8c7c3b925910160405180910390a3505050565b6000610c988484610aae565b90506000198114610d005781811015610cf35760405162461bcd60e51b815260206004820152601d60248201527f45524332303a20696e73756666696369656e7420616c6c6f77616e63650000006044820152606401610519565b610d008484848403610b68565b50505050565b6001600160a01b038316610d6a5760405162461bcd60e51b815260206004820152602560248201527f45524332303a207472616e736665722066726f6d20746865207a65726f206164604482015264647265737360d81b6064820152608401610519565b6001600160a01b038216610dcc5760405162461bcd60e51b815260206004820152602360248201527f45524332303a207472616e7366657220746f20746865207a65726f206164647260448201526265737360e81b6064820152608401610519565b6001600160a01b03831660009081526020819052604090205481811015610e445760405162461bcd60e51b815260206004820152602660248201527f45524332303a207472616e7366657220616d6f756e7420657863656564732062604482015265616c616e636560d01b6064820152608401610519565b6001600160a01b03848116600081815260208181526040808320878703905593871680835291849020805487019055925185815290927fddf252ad1be2c89b69c2b068fc378daa952ba7f163c4a11628f55a4df523b3ef910160405180910390a3610d00848484611339565b6000306001600160a01b037f000000000000000000000000000000000000000000000000000000000000000016148015610f0957507f000000000000000000000000000000000000000000000000000000000000000046145b15610f3357507f000000000000000000000000000000000000000000000000000000000000000090565b6104c2604080517f8b73c3c69bb8fe3d512ecc4cf759cc79239f7b179b0ffacaa9a75d522b39400f60208201527f0000000000000000000000000000000000000000000000000000000000000000918101919091527f000000000000000000000000000000000000000000000000000000000000000060608201524660808201523060a082015260009060c00160405160208183030381529060405280519060200120905090565b815460009081816005811115611035576000610ff684611343565b6110009085611f60565b600088815260209020909150869082015463ffffffff16111561102557809150611033565b611030816001611f04565b92505b505b80821015611082576000611049838361142b565b600088815260209020909150869082015463ffffffff16111561106e5780915061107c565b611079816001611f04565b92505b50611035565b80156110ad5760008681526020902081016000190154600160201b90046001600160e01b03166110b0565b60005b6001600160e01b03169695505050505050565b6001600160a01b038281166000818152600960208181526040808420805485845282862054949093528787166001600160a01b03198416811790915590519190951694919391928592917f3134e8a2e6d97e929a7e54011ea5485d7d196dd5f0ba4d4ef95803e8e3fc257f9190a4610d00828483611446565b600063ffffffff8211156111a15760405162461bcd60e51b815260206004820152602660248201527f53616665436173743a2076616c756520646f65736e27742066697420696e203360448201526532206269747360d01b6064820152608401610519565b5090565b606060ff83146111bf576111b883611583565b905061048e565b8180546111cb90611eba565b80601f01602080910402602001604051908101604052809291908181526020018280546111f790611eba565b80156112445780601f1061121957610100808354040283529160200191611244565b820191906000526020600020905b81548152906001019060200180831161122757829003601f168201915b5050505050905061048e565b600065ffffffffffff8211156111a15760405162461bcd60e51b815260206004820152602660248201527f53616665436173743a2076616c756520646f65736e27742066697420696e203460448201526538206269747360d01b6064820152608401610519565b600061048e6112c4610eb0565b8360405161190160f01b8152600281019290925260228201526042902090565b60008060006112f5878787876115c2565b915091506113028161167c565b5095945050505050565b6001600160a01b03811660009081526007602052604090208054600181018255905b50919050565b505050565b61133482826117c1565b60008160000361135557506000919050565b600060016113628461184b565b901c6001901b9050600181848161137b5761137b611f73565b048201901c9050600181848161139357611393611f73565b048201901c905060018184816113ab576113ab611f73565b048201901c905060018184816113c3576113c3611f73565b048201901c905060018184816113db576113db611f73565b048201901c905060018184816113f3576113f3611f73565b048201901c9050600181848161140b5761140b611f73565b048201901c90506105448182858161142557611425611f73565b046118df565b600061143a6002848418611f89565b61054490848416611f04565b816001600160a01b0316836001600160a01b0316141580156114685750600081115b15611334576001600160a01b038316156114f6576001600160a01b0383166000908152600a6020526040812081906114a3906118f585611901565b91509150846001600160a01b03167fdec2bacdd2f05b59de34da9b523dff8be42e5e38e818c82fdb0bae774387a72483836040516114eb929190918252602082015260400190565b60405180910390a250505b6001600160a01b03821615611334576001600160a01b0382166000908152600a60205260408120819061152c90610b5c85611901565b91509150836001600160a01b03167fdec2bacdd2f05b59de34da9b523dff8be42e5e38e818c82fdb0bae774387a7248383604051611574929190918252602082015260400190565b60405180910390a25050505050565b6060600061159083611a73565b604080516020808252818301909252919250600091906020820181803683375050509182525060208101929092525090565b6000806fa2a8918ca85bafe22016d0b997e4df60600160ff1b038311156115ef5750600090506003611673565b6040805160008082526020820180845289905260ff881692820192909252606081018690526080810185905260019060a0016020604051602081039080840390855afa158015611643573d6000803e3d6000fd5b5050604051601f1901519150506001600160a01b03811661166c57600060019250925050611673565b9150600090505b94509492505050565b600081600481111561169057611690611fab565b036116985750565b60018160048111156116ac576116ac611fab565b036116f45760405162461bcd60e51b815260206004820152601860248201527745434453413a20696e76616c6964207369676e617475726560401b6044820152606401610519565b600281600481111561170857611708611fab565b036117555760405162461bcd60e51b815260206004820152601f60248201527f45434453413a20696e76616c6964207369676e6174757265206c656e677468006044820152606401610519565b600381600481111561176957611769611fab565b036105ed5760405162461bcd60e51b815260206004820152602260248201527f45434453413a20696e76616c6964207369676e6174757265202773272076616c604482015261756560f01b6064820152608401610519565b6117cb8282611a9b565b6002546001600160e01b03101561183d5760405162461bcd60e51b815260206004820152603060248201527f4552433230566f7465733a20746f74616c20737570706c79207269736b73206f60448201526f766572666c6f77696e6720766f74657360801b6064820152608401610519565b610d00600b610b5c83611901565b600080608083901c1561186057608092831c92015b604083901c1561187257604092831c92015b602083901c1561188457602092831c92015b601083901c1561189657601092831c92015b600883901c156118a857600892831c92015b600483901c156118ba57600492831c92015b600283901c156118cc57600292831c92015b600183901c1561048e5760010192915050565b60008183106118ee5781610544565b5090919050565b60006105448284611f60565b8254600090819081811561194d5760008781526020902082016000190160408051808201909152905463ffffffff81168252600160201b90046001600160e01b03166020820152611962565b60408051808201909152600080825260208201525b905080602001516001600160e01b0316935061198284868863ffffffff16565b92506000821180156119ac57506119976106f4565b65ffffffffffff16816000015163ffffffff16145b156119f0576119ba83611b66565b60008881526020902083016000190180546001600160e01b0392909216600160201b0263ffffffff909216919091179055611a69565b866040518060400160405280611a14611a076106f4565b65ffffffffffff1661113c565b63ffffffff168152602001611a2886611b66565b6001600160e01b039081169091528254600181018455600093845260209384902083519490930151909116600160201b0263ffffffff909316929092179101555b5050935093915050565b600060ff8216601f81111561048e57604051632cd44ac360e21b815260040160405180910390fd5b6001600160a01b038216611af15760405162461bcd60e51b815260206004820152601f60248201527f45524332303a206d696e7420746f20746865207a65726f2061646472657373006044820152606401610519565b8060026000828254611b039190611f04565b90915550506001600160a01b038216600081815260208181526040808320805486019055518481527fddf252ad1be2c89b69c2b068fc378daa952ba7f163c4a11628f55a4df523b3ef910160405180910390a3611b6260008383611339565b5050565b60006001600160e01b038211156111a15760405162461bcd60e51b815260206004820152602760248201527f53616665436173743a2076616c756520646f65736e27742066697420696e20326044820152663234206269747360c81b6064820152608401610519565b6000815180845260005b81811015611bf557602081850181015186830182015201611bd9565b506000602082860101526020601f19601f83011685010191505092915050565b6020815260006105446020830184611bcf565b80356001600160a01b0381168114611c3f57600080fd5b919050565b60008060408385031215611c5757600080fd5b611c6083611c28565b946020939093013593505050565b600080600060608486031215611c8357600080fd5b611c8c84611c28565b9250611c9a60208501611c28565b9150604084013590509250925092565b600060208284031215611cbc57600080fd5b61054482611c28565b60ff60f81b881681526000602060e081840152611ce560e084018a611bcf565b8381036040850152611cf7818a611bcf565b606085018990526001600160a01b038816608086015260a0850187905284810360c0860152855180825283870192509083019060005b81811015611d4957835183529284019291840191600101611d2d565b50909c9b505050505050505050505050565b600060208284031215611d6d57600080fd5b5035919050565b803560ff81168114611c3f57600080fd5b60008060008060008060c08789031215611d9e57600080fd5b611da787611c28565b95506020870135945060408701359350611dc360608801611d74565b92506080870135915060a087013590509295509295509295565b600080600080600080600060e0888a031215611df857600080fd5b611e0188611c28565b9650611e0f60208901611c28565b95506040880135945060608801359350611e2b60808901611d74565b925060a0880135915060c0880135905092959891949750929550565b60008060408385031215611e5a57600080fd5b611e6383611c28565b9150611e7160208401611c28565b90509250929050565b60008060408385031215611e8d57600080fd5b611e9683611c28565b9150602083013563ffffffff81168114611eaf57600080fd5b809150509250929050565b600181811c90821680611ece57607f821691505b60208210810361132e57634e487b7160e01b600052602260045260246000fd5b634e487b7160e01b600052601160045260246000fd5b8082018082111561048e5761048e611eee565b60208082526019908201527804552433230566f7465733a20667574757265206c6f6f6b757603c1b604082015260600190565b634e487b7160e01b600052603260045260246000fd5b8181038181111561048e5761048e611eee565b634e487b7160e01b600052601260045260246000fd5b600082611fa657634e487b7160e01b600052601260045260246000fd5b500490565b634e487b7160e01b600052602160045260246000fdfea26469706673582212205c816412b2687f838d58889b67c5f427e10350773e66c9c4785bc2dfbc25105164736f6c63430008130033",
  "linkReferences": {},
  "deployedLinkReferences": {}
}